:020000040800F2
:1000000000000120050300080B030008110300088D
:1000100033030008390300085B03000800000000F8
:100020000000000000000000000000007D03000848
:100030008303000800000000890300088F03000804
:10004000AD030008AD030008AD030008AD030008D0
:10005000AD030008AD030008AD030008AD030008C0
:10006000AD030008AD030008AD030008AD030008B0
:10007000AD030008AD030008AD030008AD030008A0
:10008000AD030008AD030008AD0300080000000048
:10009000000000000000000000000000AD030008A8
:1000A000AD030008AD030008AD030008AD03000870
:1000B000AD030008AD030008AD030008AD03000860
:1000C000AD030008AD030008AD030008AD03000850
:1000D000AD030008AD030008AD03000800000000F8
:1000E000AD030008AD030008AD03000800000000E8
:1000F000000000000000000000000000AD03000848
:1001000000000000AD030008AD030008AD030008C7
:1001100000000000000000000000000000000000DF
:10012000AD030008AD030008AD030008AD030008EF
:10013000AD03000800000000000000000000000007
:10014000000000000000000000000000AD030008F7
:10015000AD030008AD030008AD030008AD030008BF
:10016000AD030008AD03000800000000000000001F
:10017000000000000000000000000000000000007F
:1001800000000000AD0300080000000000000000B7
:10019000AD03000880B596B000AF00F037F94F4BC3
:1001A0007B6524E07B6D1A1D7A651B683B647B6D63
:1001B0001A1D7A651B68FB637B6D1A1D7A651B68C7
:1001C000BB633B6C7B63FB6B3B63BB6BFB623B6B5F
:1001D000BB6207E07A6B131D7B63BB6A191DB962B2
:1001E00012681A60FA6ABB6A9A42F3D800BF7B6D44
:1001F0003B4A9342D6D33B4B3B651AE03B6D1A1DFD
:100200003A651B68BB643B6D1A1D3A651B687B64CD
:10021000BB6C7B627B6C3B627B6AFB6104E0FB69CD
:100220001A1DFA6100221A603A6AFB699A42F6D8EE
:1002300000BF3B6D2C4A9342E0D300F0F5F83A1D25
:1002400007F108031146184600F0CEF8274A284B5C
:10025000D31A9B103B610023FB6007E0244AFB6834
:1002600052F823309847FB680133FB603A69FB681A
:100270009A42F3DC1F4A204BD31A9B103B610023A8
:10028000FB6007E01C4AFB6852F823309847FB6884
:100290000133FB603A69FB689A42F3DC00BFBB683C
:1002A0007A681146184600F06BF9F864134A144B4B
:1002B000D31A9B10BB61BB697B6108E07B69013B82
:1002C0000F4A52F8233098477B69013B7B617B6979
:1002D000002BF3DC00BFF86C00F080F8B4030008DA
:1002E000CC030008CC030008DC030008DC03000892
:1002F000DC030008DC030008DC030008DC03000862
:10030000DC0300082548004700BF80B400AFFEE7CB
:100310001EF0040F0CBFEFF30880EFF30980714665
:100320001F4A104700BF80B483B000AF78603960C7
:10033000FEE780B400AFFEE71EF0040F0CBFEFF342
:100340000880EFF309807146164A104700BF80B459
:1003500083B000AF78603960FEE71EF0040F0CBF79
:10036000EFF30880EFF3098071460F4A104700BF92
:1003700080B483B000AF78603960FEE780B400AF2E
:10038000FEE780B400AFFEE780B400AFFEE780B4C4
:1003900000AF00BFBD4680BC70470000950100085B
:1003A000270300084F0300087103000880B400AF62
:0203B000FEE766
:1003B400D80F00080000002018000020D80F000803
:1003C4000000001000000010180000201C00002095
:0803D400000000100000001001
:1003DC0080B582B000AF786000F03CF880B483B098
:1003EC0000AF786039607B6801221A603B68034A71
:1003FC001A6000BF0C37BD4680BC7047000000205F
:10040C0080B500AF00F02AF8024B034A9A6000BF97
:10041C0080BD00BF00ED00E00000000880B500AF1B
:10042C0000F028F800BF80BD80B400AFBFF34F8F41
:10043C0000BF064BDB6803F4E0620449044B134332
:10044C00CB60BFF34F8F00BF00BFFDE700ED00E0B6
:10045C000400FA0580B500AFFFF7E6FF80B400AFEB
:10046C00034B4FF000629A6000BFBD4680BC7047E2
:10047C0000ED00E080B487B000AF00233B610023A7
:10048C007B610223FB600023BB6002237B60344B47
:10049C009B6803F00C033B613B69082B11D03B6953
:1004AC00082B44D83B69002B03D03B69042B04D0A8
:1004BC003DE02C4B2C4A1A603DE02A4B2B4A1A602B
:1004CC0039E0274B5B689B0D03F00103BB60244BA9
:1004DC005B6803F03F037B60BB68002B0CD0234AA6
:1004EC007B68B2FBF3F31E4A52689209C2F308020E
:1004FC0002FB03F37B610BE01B4A7B68B2FBF3F35B
:10050C00174A52689209C2F3080202FB03F37B619B
:10051C00134B5B681B0C03F0030301335B00FB60A4
:10052C007A69FB68B2FBF3F30E4A136003E00D4BE0
:10053C000D4A1A6000BF0A4B9B681B0903F00F039E
:10054C000B4AD35C3B61074B1A683B6922FA03F3F5
:10055C00044A136000BF1C37BD4680BC704700BF07
:10056C0000380240080000200024F40000127A0039
:10057C00C80F000880B582B000AF00F0ABF90020C6
:10058C0000F0B6F9012000F0B3F900F005FA0023F1
:10059C007B6009E07B68D9B200230122412000F086
:1005AC0079FA7B6801337B607B68062BF2D900F00B
:1005BC001FFAFCE780B582B000AF00F061FA034689
:1005CC00FB71FB79092B00F27F8101A252F823F019
:1005DC00050600084D06000895060008DD06000813
:1005EC00250700086D070008B5070008FD0700087F
:1005FC00450800088D08000801220021412000F068
:10060C00B1FB01220121412000F0ACFB01220221AF
:10061C00412000F0A7FB01220321412000F0A2FBA6
:10062C0001220421412000F09DFB012205214120E3
:10063C0000F098FB00220621412000F093FB44E1DE
:10064C0000220021412000F08DFB012201214120DC
:10065C0000F088FB01220221412000F083FB0022E4
:10066C000321412000F07EFB00220421412000F0F8
:10067C0079FB00220521412000F074FB00220621A9
:10068C00412000F06FFB20E101220021412000F00D
:10069C0069FB01220121412000F064FB00220221B0
:1006AC00412000F05FFB01220321412000F05AFBA6
:1006BC0001220421412000F055FB0022052141209C
:1006CC0000F050FB01220621412000F04BFBFCE026
:1006DC0001220021412000F045FB01220121412093
:1006EC0000F040FB01220221412000F03BFB0122E3
:1006FC000321412000F036FB00220421412000F0B0
:10070C0031FB00220521412000F02CFB01220621A7
:10071C00412000F027FBD8E000220021412000F00E
:10072C0021FB01220121412000F01CFB01220221AE
:10073C00412000F017FB00220321412000F012FBA6
:10074C0000220421412000F00DFB01220521412053
:10075C0000F008FB01220621412000F003FBB4E06D
:10076C0001220021412000F0FDFA0022012141204C
:10077C0000F0F8FA01220221412000F0F3FA0122E4
:10078C000321412000F0EEFA00220421412000F068
:10079C00E9FA01220521412000F0E4FA01220621A8
:1007AC00412000F0DFFA90E001220021412000F00E
:1007BC00D9FA00220121412000F0D4FA01220221B1
:1007CC00412000F0CFFA01220321412000F0CAFAA7
:1007DC0001220421412000F0C5FA0122052141200B
:1007EC0000F0C0FA01220621412000F0BBFA6CE0B7
:1007FC0001220021412000F0B5FA01220121412003
:10080C0000F0B0FA01220221412000F0ABFA0022E4
:10081C000321412000F0A6FA00220421412000F01F
:10082C00A1FA00220521412000F09CFA00220621A9
:10083C00412000F097FA48E001220021412000F00D
:10084C0091FA01220121412000F08CFA01220221AF
:10085C00412000F087FA01220321412000F082FAA6
:10086C0001220421412000F07DFA012205214120C2
:10087C0000F078FA01220621412000F073FA24E0FE
:10088C0001220021412000F06DFA012201214120BA
:10089C0000F068FA01220221412000F063FA0122E3
:1008AC000321412000F05EFA00220421412000F0D7
:1008BC0059FA01220521412000F054FA01220621A7
:1008CC00412000F04FFA00E000BF00BF0837BD46E2
:1008DC0080BD00BF80B400AF044B1B68034A43F0DB
:1008EC000103136000BFBD4680BC70470038024056
:1008FC0080B485B000AF0346FB71FB795B09FB73D9
:10090C00FB7903F01F03BB73FB7B032B36D801A2CF
:10091C0052F823F031090008470900085D09000866
:10092C0073090008184B1B68BA7B012101FA02F20B
:10093C001146154A0B43136021E0144B1B68BA7B1C
:10094C00012101FA02F21146104A0B43136016E022
:10095C000F4B1B68BA7B012101FA02F211460C4ABB
:10096C000B4313600BE00B4B1B68BA7B012101FAA4
:10097C0002F21146074A0B43136000E000BF00BFB0
:10098C001437BD4680BC70473038024034380240C2
:10099C00403802404438024080B582B000AF00239A
:1009AC00FB7108E0F97901230022422000F072F873
:1009BC00FB790133FB71FB79022BF3D90723FB7114
:1009CC000EE0F97900230122422000F063F8FB7954
:1009DC0001221946422000F0C5F9FB790133FB7165
:1009EC00FB790A2BEDD900BF00BF0837BD4680BD8F
:1009FC0080B582B000AF0723FB7135E0FB79002294
:100A0C001946422000F0AEF90023BB7120E0BB79FF
:100A1C001946422000F06EFA0346002B15D1BB7923
:100A2C001946422000F066FA0346002B0DD1FB79E3
:100A3C00DA1FB979104813465B00134403440B4486
:100A4C001A780E4B1A70FFF7B5FDBB790133BB71E9
:100A5C00BB79022BDBD9FB7901221946422000F02D
:100A6C0081F9FB790133FB71FB790A2BC6D900BFE5
:100A7C0000BF0837BD4680BD0C00002019000020C7
:100A8C0080B400AF024B1B781846BD4680BC704743
:100A9C001900002090B482B000AF044608461146FD
:100AAC001A462346FB710346BB710B467B711346FA
:100ABC003B71FB79413B032B00F23C8101A252F8C4
:100ACC0023F000BFE10A0008790B0008110C0008A4
:100ADC00A90C00089A4B1B68BA795200032101FA41
:100AEC0002F2D2431146964A0B401360944B1B689A
:100AFC007979BA79520001FA02F21146904A0B4305
:100B0C0013607B79002B17D0012B2DD18D4B1B68DB
:100B1C00BA79012101FA02F2D2431146894A0B40FB
:100B2C001360884B1B683979BA7901FA02F21146C5
:100B3C00844A0B43136018E0834B1B68BA7952004C
:100B4C00032101FA02F2D24311467F4A0B40136093
:100B5C007D4B1B683979BA79520001FA02F21146C1
:100B6C00794A0B43136000E000BFE4E0774B1B684D
:100B7C00BA795200032101FA02F2D2431146734AA8
:100B8C000B401360714B1B687979BA79520001FAEA
:100B9C0002F211466D4A0B4313607B79002B17D080
:100BAC00012B2DD16A4B1B68BA79012101FA02F293
:100BBC00D2431146664A0B401360654B1B6839796A
:100BCC00BA7901FA02F21146614A0B43136018E03C
:100BDC00604B1B68BA795200032101FA02F2D2432E
:100BEC0011465C4A0B4013605A4B1B683979BA7931
:100BFC00520001FA02F21146564A0B43136000E010
:100C0C0000BF98E0544B1B68BA795200032101FADB
:100C1C0002F2D2431146504A0B4013604E4B1B68F4
:100C2C007979BA79520001FA02F211464A4A0B4319
:100C3C0013607B79002B17D0012B2DD1474B1B68F0
:100C4C00BA79012101FA02F2D2431146434A0B4010
:100C5C001360424B1B683979BA7901FA02F21146DA
:100C6C003E4A0B43136018E03D4B1B68BA795200A7
:100C7C00032101FA02F2D2431146394A0B401360A8
:100C8C00374B1B683979BA79520001FA02F21146D6
:100C9C00334A0B43136000E000BF4CE02E4B1B6843
:100CAC00BA795200032101FA02F2D24311462A4AC0
:100CBC000B401360284B1B687979BA79520001FA02
:100CCC0002F21146244A0B4313607B79002B17D098
:100CDC00012B2DD1214B1B68BA79012101FA02F2AB
:100CEC00D24311461D4A0B4013601C4B1B683979CB
:100CFC00BA7901FA02F21146184A0B43136018E054
:100D0C00174B1B68BA795200032101FA02F2D24345
:100D1C001146134A0B401360114B1B683979BA7991
:100D2C00520001FA02F211460D4A0B43136000E027
:100D3C0000BF00E000BF00BF0837BD4690BC704745
:100D4C0000000240040002400C000240000402407B
:100D5C00040402400C040240000802400408024053
:100D6C000C08024080B483B000AF0346FB710B4605
:100D7C00BB7113467B71FB79413B032B00F2A880BE
:100D8C0001A252F823F000BFA50D0008F30D0008D6
:100D9C00410E00088F0E0008504B1B68BA795200A8
:100DAC00032101FA02F21A40BB795B0022FA03F329
:100DBC00012B16D14A4B1B68BA79012101FA02F2B8
:100DCC00D2431146464A0B401360454B1B68797958
:100DDC00BA7901FA02F21146414A0B43136000231F
:100DEC0077E0012375E03F4B1B68BA795200032171
:100DFC0001FA02F21A40BB795B0022FA03F3012BD1
:100E0C0016D1394B1B68BA79012101FA02F2D2438F
:100E1C001146354A0B401360334B1B687979BA790C
:100E2C0001FA02F21146304A0B431360002350E0E2
:100E3C0001234EE02D4B1B68BA795200032101FAB5
:100E4C0002F21A40BB795B0022FA03F3012B16D194
:100E5C00274B1B68BA79012101FA02F2D2431146E1
:100E6C00234A0B401360224B1B687979BA7901FA3B
:100E7C0002F211461E4A0B431360002329E00123A2
:100E8C0027E01A4B1B68BA795200032101FA02F2CF
:100E9C001A40BB795B0022FA03F3012B16D1144BD9
:100EAC001B68BA79012101FA02F2D2431146104AA9
:100EBC000B4013600E4B1B687979BA7901FA02F278
:100ECC0011460B4A0B431360002302E0012300E0A0
:100EDC00012318460C37BD4680BC70470000024009
:100EEC0014000240000402401404024000080240B6
:100EFC001408024080B483B000AF03460A46FB716D
:100F0C001346BB71FB79413B032B4BD801A252F822
:100F1C0023F000BF310F0008510F0008710F0008BB
:100F2C00910F0008224B1B68BA79012101FA02F2D9
:100F3C001A40BB7922FA03F3012B01D1012332E0D1
:100F4C00002330E01B4B1B68BA79012101FA02F235
:100F5C001A40BB7922FA03F3012B01D1012322E0C1
:100F6C00002320E0144B1B68BA79012101FA02F22C
:100F7C001A40BB7922FA03F3012B01D1012312E0B1
:100F8C00002310E00C4B1B68BA79012101FA02F224
:100F9C001A40BB7922FA03F3012B01D1012302E0A1
:100FAC00002300E0002318460C37BD4680BC704778
:100FBC001000024010040240100802400000000023
:0C0FCC00000000000102030406070809F1
:100FD80018000020000000000024F40001020304AF
:080FE8000506070809000000DE
:040000050800019559
:00000001FF
